:020000040800F2
:10000000600600201D0200082502000827020008E3
:10001000290200082B0200082D0200080000000041
:100020000000000000000000000000002F02000897
:100030003102000800000000330200083502000809
:1000400037020008370200083702000837020008AC
:10005000370200083702000837020008370200089C
:10006000370200083702000837020008370200088C
:10007000370200083702000837020008370200087C
:1000800037020008370200083702000800000000AD
:10009000000000000000000000000000370200081F
:1000A000370200083702000837020008370200084C
:1000B000370200083702000837020008370200083C
:1000C000370200083702000837020008370200082C
:1000D000370200083702000837020008000000005D
:1000E000370200083702000837020008000000004D
:1000F00000000000000000000000000037020008BF
:10010000000000003702000837020008370200082C
:1001100000000000000000000000000000000000DF
:1001200037020008370200083702000837020008CB
:10013000370200080000000000000000000000007E
:10014000000000000000000000000000370200086E
:10015000370200083702000837020008370200089B
:10016000370200083702000800000000000000000D
:10017000000000000000000000000000000000007F
:10018000000000003702000800000000000000002E
:10019000370200083702000800F002F800F02EF8DD
:1001A0000AA090E8000C82448344AAF10107DA45D2
:1001B00001D100F023F8AFF2090EBAE80F0013F0F6
:1001C000010F18BFFB1A43F001031847480B00004A
:1001D000580B00000023002400250026103A28BFF9
:1001E00078C1FBD8520728BF30C148BF0B607047A9
:1001F0001FB500F089FD1FBD10B510BD00F063F8FC
:100200001146FFF7F5FF00F0C3F900F081F803B4E1
:10021000FFF7F2FF03BC00F089F8000009488047AF
:1002200009480047FEE7FEE7FEE7FEE7FEE7FEE7D8
:10023000FEE7FEE7FEE7FEE704480549054A064BF0
:100240007047000081040008990100086000002048
:1002500060060020600200206002002010B5203AF5
:10026000C0F00B80B1E81850203AA0E81850B1E86F
:100270001850A0E81850BFF4F5AF5FEA027C24BF25
:10028000B1E81850A0E8185044BF18C918C0BDE81C
:1002900010405FEA827C24BF51F8043B40F8043BE5
:1002A00008BF7047D20728BF31F8023B48BF11F89A
:1002B000012B28BF20F8023B48BF00F8012B7047F4
:1002C000704770477047754600F02CF8AE46050041
:1002D0006946534620F00700854618B020B5FFF761
:1002E000ABFFBDE820404FF000064FF000074FF095
:1002F00000084FF0000B21F00701AC46ACE8C00944
:10030000ACE8C009ACE8C009ACE8C0098D4670474C
:1003100010B50446AFF300802046BDE81040FFF75B
:1003200076BF0000004870470000002001491820F7
:10033000ABBEFEE7260002007047000000B5034692
:100340004FF4C0000B4908600B4803608020086030
:10035000002000F011F94FF4000006490860042B5A
:1003600003DA022000F008F902E0012000F004F9AD
:1003700000BD0000180402401408024000B5034606
:100380002020094908604004086008480360802074
:100390000860002000F0F0F84FF400000249086007
:1003A000012000F0E9F800BD1804024014080240E2
:1003B00000B500F01FF81E2000F0DEF83020FFF737
:1003C000BDFF0A2000F0D8F83020FFF7B7FF01206A
:1003D00000F0D2F83020FFF7B1FF3820FFF7AEFF72
:1003E0000620FFF7ABFF0120FFF7A8FF0F20FFF764
:1003F000A5FF00BD1B48006840F0010019490860D6
:1004000019481A4908600846406A002117484162A5
:10041000406A40F4EE61154841621248006840F0BD
:100420000600104908601248006812490840104947
:10043000086008460068104908430D4908604FF4F9
:1004400040000B49183108600C4800686FF30F003A
:100450000A4908600846006845F2555108430749B3
:1004600008607047303802400F0069000000024009
:1004700000040240FF03FF00005400550008024042
:100480001448006840F4700012490860124800687F
:1004900040F001001049086000200F490831086051
:1004A0000D4800680D4908400B4908600C48091DBB
:1004B0000860081F006820F48020091F08600020E1
:1004C00005490C3108604FF000600249803908602E
:1004D0007047000088ED00E000380240FFFFF6FEA4
:1004E000103000240848806840F080400649886049
:1004F00000BF0548006800F002000028F9D002485B
:10050000C06C80B270470000002001400B480068BA
:1005100040F4807009490860002009498860084655
:10052000C06AC8620846406B40F001004863084654
:10053000806840F001008860704700004438024045
:100540000020014000B54FF4C000094908600120B7
:1005500008490860802006490860002000F00CF877
:100560004FF4000002490860022000F005F800BDC9
:10057000180402401408024007E0002100E0491C72
:1005800040F6B8329142FADB401E0028F5DC704795
:100590009AB0FFF70DFFFFF72DFFFFF7B7FF00F051
:1005A00083FBFFF7CFFFFCA2D2E900109268CDE9F0
:1005B00018021791FBA1D1E90023D1E90201CDE98D
:1005C0001323CDE915011822FAA10DA8FFF746FE65
:1005D000FEA103C9CDE90B01FEA103C9CDE90901C3
:1005E000002604E017A9885DFFF7C8FE761C0A2ED6
:1005F000F8DB40F2DC50FFF7BFFFFFF7A3FF462018
:10060000FFF7BAFF002604E013A9885DFFF7B6FEE6
:10061000761C0F2EF8DBC020FFF790FE002604E0CA
:100620000DA9885DFFF7AAFE761C152EF8DB4FF4A6
:10063000C870FFF7A1FF33E32820FFF79DFF4EF6B8
:10064000FF70E6490860081F0568A5F56B40FF3894
:1006500000286FD0B0F5007F6DD0B0F5407F6BD132
:10066000012000F043FBFFF76DFF2820FFF784FF18
:10067000002604E00BA9885DFFF780FE761C052E9E
:10068000F8DB9620FFF778FF48E0FFF72BFF0446E2
:10069000FFF758FF0620FFF76FFF4FF47A7094FBC7
:1006A000F0F080B2ADF81C004FF47A7094FBF0F1DA
:1006B00000FB114084B2642094FBF0F080B2ADF8EE
:1006C0001E00642094FBF0F100FB114084B20A206C
:1006D00094FBF0F080B2ADF820000A2094FBF0F11A
:1006E00000FB114084B2ADF82240002607E007A9C4
:1006F00011F816103031C8B2FFF740FE761C042EF8
:10070000F5DB4FF49670FFF737FF47F6FF70B349FC
:100710000860081F05680520FFF72EFF47F6FF3029
:100720008542B2D10120FFF709FE0120FFF724FF27
:10073000002607E007E14EE0E2E109A9885DFFF746
:100740001DFE761C042EF8DB4FF4FA70FFF714FF41
:100750004FF6FF753AE0FFF7C5FE04464FF496707A
:10076000FFF70AFFFFF7EEFE0620FFF705FF642004
:1007700094FBF0F080B2ADF81400642094FBF0F12B
:1007800000FB114084B20A2094FBF0F080B2ADF877
:1007900016000A2094FBF0F100FB114084B2ADF882
:1007A0001840002607E005A911F816103031C8B22C
:1007B000FFF7E4FD761C032EF5DB47F6FF70874953
:1007C0000860081F05680520FFF7D6FE47F6FF30D2
:1007D0008542C0D194E1022000F088FAFFF7B2FE12
:1007E0002820FFF7C9FE002604E00BA9885DFFF76B
:1007F000C5FD761C052EF8DB9620FFF7BDFE48E010
:10080000FFF770FE0446FFF79DFE0620FFF7B4FEDB
:100810004FF47A7094FBF0F080B2ADF81C004FF406
:100820007A7094FBF0F100FB114084B2642094FBD9
:10083000F0F080B2ADF81E00642094FBF0F100FBF4
:10084000114084B20A2094FBF0F080B2ADF8200091
:100850000A2094FBF0F100FB114084B2ADF8224075
:10086000002607E007A911F816103031C8B2FFF7CB
:1008700085FD761C042EF5DB4FF49670FFF77CFEA9
:1008800047F6FF7055490860081F05680520FFF707
:1008900073FE47F6FF308542B2D10120FFF74EFDCF
:1008A0000120FFF769FE002604E009A9885DFFF733
:1008B00065FD761C042EF8DB4FF4FA70FFF75CFE42
:1008C0004FF6FF753AE0FFF70DFE04464FF49670C1
:1008D000FFF752FEFFF736FE0620FFF74DFE6420BD
:1008E00094FBF0F080B2ADF81400642094FBF0F1BA
:1008F00000FB114084B20A2094FBF0F080B2ADF806
:1009000016000A2094FBF0F100FB114084B2ADF810
:100910001840002607E005A911F816103031C8B2BA
:10092000FFF72CFD761C032EF5DB47F6FF702B49F5
:100930000860081F05680520FFF71EFE47F6FF3018
:100940008542C0D1DCE0032000F0D0F9FFF7FAFDCA
:100950002820FFF711FE002604E00BA9885DFFF7B1
:100960000DFD761C052EF8DB9620FFF705FE6DE0E9
:10097000FFF7B8FD0446FFF7E5FD0620FFF7FCFD95
:100980004FF47A7094FBF0F080B2ADF81C004FF495
:100990007A7094FBF0F123E0393632343330343856
:1009A0000D0A0000312E53696E20322E537175618D
:1009B00072650000332E547269616E676C65203475
:1009C0002E536177746F6F746800000054696D6511
:1009D0003F0000006672713F0000000014040240F6
:1009E00000FB114084B2642094FBF0F080B2ADF8BB
:1009F0001E00642094FBF0F100FB114084B20A2039
:100A000094FBF0F080B2ADF820000A2094FBF0F1E6
:100A100000FB114084B2ADF82240002607E007A990
:100A200011F816103031C8B2FFF7A8FC761C042E5E
:100A3000F5DB4FF49670FFF79FFD47F6FF7099497D
:100A40000860081F05680520FFF796FD47F6FF3090
:100A500085428DD10120FFF771FC0120FFF78CFD4D
:100A6000002604E009A9885DFFF788FC761C042EA7
:100A7000F8DB4FF4FA70FFF77FFD4FF6FF753AE0B1
:100A8000FFF730FD04464FF49670FFF775FDFFF752
:100A900059FD0620FFF770FD642094FBF0F080B252
:100AA000ADF81400642094FBF0F100FB114084B217
:100AB0000A2094FBF0F080B2ADF816000A2094FBF7
:100AC000F0F100FB114084B2ADF81840002607E0B9
:100AD00005A911F816103031C8B2FFF74FFC761C8B
:100AE000032EF5DB47F6FF706E490860081F0568A6
:100AF0000520FFF741FD47F6FF308542C0D100BF1A
:100B000000BF4DF6FF7067490860081F0568A5F52E
:100B10005E40FF38002873D1042000F0E7F8FFF7AB
:100B200011FD2820FFF728FDAFF2601103C9CDE9C0
:100B30000301002604E003A9885DFFF71FFC761C73
:100B4000052EF8DB9620FFF717FD48E0FFF7CAFCFB
:100B50000446FFF7F7FC0620FFF70EFD4FF47A700E
:100B600094FBF0F080B2ADF81C004FF47A7094FB67
:100B7000F0F100FB114084B2642094FBF0F080B2ED
:100B8000ADF81E00642094FBF0F100FB114084B22C
:100B90000A2094FBF0F080B2ADF820000A2094FB0C
:100BA000F0F100FB114084B2ADF82240002607E0CE
:100BB00007A911F816103031C8B2FFF7DFFB761C19
:100BC000042EF5DB4FF49670FFF7D6FC47F6FF7066
:100BD00034490860081F05680520FFF7CDFC47F67B
:100BE000FF308542B2D10120FFF7A8FB0120FFF7BB
:100BF000C3FCAFF2202103C9CDE90101002605E0C5
:100C00004DE001A9885DFFF7B9FB761C042EF8DBE7
:100C10004FF4FA70FFF7B0FC4FF6FF753AE0FFF7BC
:100C200061FC04464FF49670FFF7A6FCFFF78AFCC0
:100C30000620FFF7A1FC642094FBF0F080B2ADF831
:100C40001400642094FBF0F100FB114084B20A20F0
:100C500094FBF0F080B2ADF816000A2094FBF0F19E
:100C600000FB114084B2ADF81840002607E005A94A
:100C700011F816103031C8B2FFF780FB761C032E36
:100C8000F5DB47F6FF7007490860081F0568052077
:100C9000FFF772FC47F6FF308542C0D100BF00BFAE
:100CA000CAE40000140402400E48006840F010003E
:100CB0000C49086040F283600B4988600846C068B0
:100CC00040F00800C8600846C06840F00400C860F2
:100CD0000020086148610846C06840F40050C860C0
:100CE00070470000443802400010014000BF054931
:100CF000096801F080010029F9D0C1B2014A5160B0
:100D000070470000001001404FF04070E1EE100A03
:100D100070470000240D000800000020600600005D
:040D2000D4010008F2
:040000050800019955
:00000001FF
