:020000040800F2
:10000000600A00201D0200082502000827020008DF
:10001000290200082B0200082D0200080000000041
:100020000000000000000000000000002F02000897
:100030003102000800000000330200083502000809
:1000400037020008370200083702000837020008AC
:10005000370200083702000837020008370200089C
:10006000370200083702000837020008370200088C
:10007000370200083702000837020008370200087C
:1000800037020008370200083702000800000000AD
:10009000000000000000000000000000370200081F
:1000A000370200083702000837020008370200084C
:1000B000370200083702000837020008370200083C
:1000C000370200083702000837020008370200082C
:1000D000370200083702000837020008000000005D
:1000E000370200083702000837020008000000004D
:1000F00000000000000000000000000037020008BF
:10010000000000003702000837020008370200082C
:1001100000000000000000000000000000000000DF
:1001200037020008370200083702000837020008CB
:10013000370200080000000000000000000000007E
:10014000000000000000000000000000370200086E
:10015000370200083702000837020008370200089B
:10016000370200083702000800000000000000000D
:10017000000000000000000000000000000000007F
:10018000000000003702000800000000000000002E
:10019000370200083702000800F002F800F02EF8DD
:1001A0000AA090E8000C82448344AAF10107DA45D2
:1001B00001D100F023F8AFF2090EBAE80F0013F0F6
:1001C000010F18BFFB1A43F0010318471C1700006A
:1001D0002C1700000023002400250026103A28BF19
:1001E00078C1FBD8520728BF30C148BF0B607047A9
:1001F0001FB501F0E3FA1FBD10B510BD00F044F8C3
:100200001146FFF7F5FF00F059FD00F062F803B466
:10021000FFF7F2FF03BC00F065F8000009488047D3
:1002200009480047FEE7FEE7FEE7FEE7FEE7FEE7D8
:10023000FEE7FEE7FEE7FEE704480549054A064BF0
:1002400070470000F50200089901000860040020D2
:10025000600A00206006002060060020704770479A
:10026000704710B500F008F8006810BD10B50446DE
:1002700000F002F8046010BD004870470004002040
:1002800000487047000400207546FFF7F9FFAE46AE
:1002900005006946534620F00700854618B020B592
:1002A000FFF7CAFFBDE820404FF000064FF00007FF
:1002B0004FF000084FF0000B21F00701AC46ACE80E
:1002C000C009ACE8C009ACE8C009ACE8C0098D467B
:1002D000704710B50446AFF300802046BDE81040DB
:1002E000FFF795BF01491820ABBEFEE726000200CC
:1002F000704700001448006840F47000124908601C
:100300001248006840F001001049086000200F49C1
:10031000083108600D4800680D4908400B49086025
:100320000C48091D0860081F006820F48020091F80
:100330000860002005490C3108604FF00060024958
:10034000803908607047000088ED00E00038024006
:10035000FFFFF6FE1030002403B40198410000981E
:1003600050EAC12018BF04204A0D18BF40F0010018
:1003700040F2FF72B2EB515F08BF40F0020001286B
:1003800008BF052002B0704710B52F499FED2C1B08
:100390002DED020B84B0059820F000408842DCBFB0
:1003A00000209DED040B32DD2849884209D10498D4
:1003B00040B94FF00100FFF759FF00F03DFC06B0D7
:1003C00010BD05DB9DED040B00F02AFC06B010BD4E
:1003D00068469DED040B00F03BF810F0030011D0CF
:1003E000012818D09DED021B9DED000B02281AD0AC
:1003F00000F04AFA51EC100B00F086FD06B041EC1B
:10040000100B10BD9DED021B9DED000B012000F0B7
:100410006FFB06B010BD9DED021B9DED000B00F0C3
:1004200033FA06B010BD012000F062FB51EC100B56
:1004300000F06AFD06B041EC100B10BD000000009A
:100440000000000000000000FB21E93F0000F07FF9
:100450002DE9F14F04462DED020B2DED088B8AB0EE
:100460009FEDE70B80ED020B139EE74826F0004559
:1004700085420ADC9DED120B002084ED000B0AB0D2
:10048000BDEC088B03B0BDE8F08FE0489FEDE0AB1A
:100490009FEDE1BBA84247DDE14F9FEDE39B9FED60
:1004A000E48B9DED120B53EC1A2B51EC100B002E2C
:1004B0001CDD01F099F841EC100BBD4208D053EC63
:1004C0001B2B51EC100B01F08FF8C4E900010BE07D
:1004D00053EC192B51EC100B01F086F853EC182B50
:1004E00001F082F8C4E900010120C8E700F018FD1E
:1004F00041EC100BBD4208D053EC1B2B51EC100B00
:1005000000F00EFDC4E900010BE053EC192B51EC97
:10051000100B00F005FD53EC182B00F001FDC4E9B1
:1005200000014FF0FF30AAE7C348A84279DB9DEDF8
:10053000120B51EC100B00F0B5FB41EC180B9FEDCA
:10054000C00B53EC102B00F045FF9FEDBF1B53EC8D
:10055000112B00F0E5FC00F0E3FE074600F00FFF72
:1005600041EC190B53EC1A2B00F034FF53EC182B11
:1005700001F02EF841EC180B53EC1B2B51EC190B2E
:1005800000F028FFDFF8C8A241EC100B4FEA155825
:100590000125FA4453EC102B51EC180B01F024F810
:1005A000032DC4E900013DD0C1F30A5005EB45110C
:1005B000A8EB00001139814234DA0AEB051BB0EEDA
:1005C00048AA9BED000BF0EE68AA53EC102B51ECFF
:1005D000190B00F0FFFE41EC1B0B51EC1A0B53EC16
:1005E0001B2B01F001F841EC180B51EC1A0B53ECEA
:1005F000182B00F0F9FF53EC1B2B00F0F5FF9BEDDF
:10060000020B41EC1A0B53EC102B51EC190B00F0C0
:10061000E1FE53EC1A2B00F0E7FF41EC100B6D1CD0
:10062000B8E70EE0002EA8BF3846BFF628AF94ED1D
:10063000000B51EC100B00F067FCC4E9000178429C
:100640001DE7C6F3130040F4801EC6F30A50A0F263
:10065000F530471100F01F05C5F12000DDF848B066
:1006600008900020069007900520EC467949002D5F
:1006700007EB0002794408BF51F8221009D051F865
:10068000223001EB8201AB404A68089922FA01F15D
:100690001943A1FB0E26A1FB0B131A449A4234BF47
:1006A0000123002303EB06080CEB8003D3E901A62A
:1006B0000E448E4234BF0121002192448A4411B17C
:1006C000924502D903E0924501D2012100E00021C8
:1006D000C3E901A641444CF82010011EA0F101001D
:1006E000C4DC029800F10050850F0298DDE9036731
:1006F0008000DDF8148000F042FE41EC1A0B304619
:1007000000F054FE9FED541B53EC112B00F062FEE1
:1007100041EC1B0B384600F049FE9FED511B53EC9A
:10072000112B00F057FE41EC180B404600F03EFE46
:100730009FED4D1B53EC112B00F04CFE41EC190BBF
:1007400051EC180B53EC192B00F0EAFB53EC1B2B6C
:1007500000F0E6FB53EC1A2B00F0E2FBCDE90801B8
:10076000002008909DED080B53EC1A2B51EC100B58
:1007700000F03AFF53EC1B2B00F036FF53EC182B24
:1007800000F032FF53EC192B00F022FF9FED381BD5
:1007900053EC112B00F01EFE9FED370B41EC180BB4
:1007A00053EC102B9DED080B51EC100B00F012FEDA
:1007B00053EC182B00F0B4FB9FED310B41EC180B00
:1007C00053EC102B9DED080B51EC100B00F002FECA
:1007D00053EC182B00F0A4FB41EC100B139810F015
:1007E000004F06D06D4251EC100B00F08DFB41EC38
:1007F000100B284684ED000B41E6000000000000CD
:100800000000000000000000FB21E93F7CD902400D
:1008100000004054FB21F93F3163621A61B4D03DBE
:10082000FB21F93F000000000000601A61B4D03DD8
:100830007370032E8A19A33BFB213941000000008D
:1008400083C8C96D305FE43F000000000000E03F56
:1008500062120000B0110000000000000000103E15
:10086000000000000000103C000000000000103AF2
:10087000182D4454FB21F93D3326A611460B113C9B
:1008800000000054FB21F93D10B52DED040B2DEDBA
:10089000088B82B0B0EE419AF0EE619A0B9820F08E
:1008A00000449FED4BABB4F1795F11DA9DED0A0B7B
:1008B00051EC100B00F034FD002801BFB0EE4A0AE5
:1008C000F0EE6A0A02B0BDEC088B04BF04B010BDA4
:1008D0009DED0A0B53EC102B51EC100B00F07AFD40
:1008E00041EC180B3C480621B0EE480AF0EE680ACD
:1008F000784400F081F853EC182B51EC100B00F009
:1009000069FD9DED0A0B41EC1B0B53EC192B51ECCF
:10091000100B00F05FFD41EC190B53EC1B2B51EC5D
:10092000180B00F057FD53EC192B00F05DFE9FED06
:100930002C0B41EC190B53EC102B51EC180B00F065
:1009400049FD41EC100B2848844210DA53EC192B76
:1009500051EC100B00F048FE53EC1A2B00F038FE5F
:1009600041EC100B02B0BDEC088B04B010BD1F4869
:10097000A042BCBF9FED1E1B8DED001B06DBA4F546
:1009800000100190002000909DED001B51EC100B19
:1009900053EC112B00F028FE9DED000B41EC180BE1
:1009A00053EC102B51EC1A0B00F01EFE41EC1A0B0D
:1009B00053EC192B51EC180B00F016FE53EC1A2BCC
:1009C00000F006FE41EC100BCCE700000000000038
:1009D000000000000000F03FD40E00000000000006
:1009E000000000000000E03F3333D33F0000E93F48
:1009F000000000000000D23F70B504462DED028BD0
:100A00004D1E00EBC500B0EE408AF0EE608A90ED1E
:100A1000000B35F0060017D053EC182B51EC100BDF
:100A200000F0D8FC41EC100B6D1E04EBC50090EDFE
:100A3000001B51EC100B53EC112B00F071FA41EC40
:100A4000100B35F00600E7D1022D36D0042D1CD056
:100A5000062D1CBFBDEC028B70BD53EC182B51EC66
:100A6000100B00F0B7FC94ED0A1B53EC112B00F0B7
:100A700057FA53EC182B00F0ADFC94ED081B53EC27
:100A8000112B00F04DFA41EC100B53EC182B51ECEC
:100A9000100B00F09FFC94ED061B53EC112B00F0A3
:100AA0003FFA53EC182B00F095FC94ED040B53EC3B
:100AB000102B00F035FA41EC100B53EC182B51ECD5
:100AC000100B00F087FC94ED021B53EC112B00F08F
:100AD00027FA53EC182B00F07DFC94ED001B53EC2F
:100AE000112B00F01DFABDEC028B41EC100B70BD18
:100AF00031B504462DED040B2DED0A8BB0EE41BA55
:100B0000F0EE61BA0B989DED0A0B20F00040B0F1B9
:100B1000795F0DDA51EC100BFFF71EFC042808BFBB
:100B200000F09AF89DED0A0BBDEC0A8B05B030BDC4
:100B300053EC102B51EC100B00F04CFC41EC180B5B
:100B40009DED0A0B53EC182B51EC100B00F042FCFE
:100B500041EC190B2C48B0EE480AF0EE680A05216A
:100B60007844FFF749FF9FED2ACBB0EE40AAF0EEA4
:100B700060AA9CB353EC1C2B51EC190B00F02AFC1F
:100B800041EC1C0B53EC1A2B51EC190B00F022FC1E
:100B90009FED210B41EC190B53EC102B51EC1B0B6F
:100BA00000F018FC53EC192B00F01EFD53EC182B31
:100BB00000F010FC53EC1B2B00F016FD53EC1C2B2B
:100BC00000F012FD9DED0A1B53EC112B00F000FD0F
:100BD000BDEC0A8B05B041EC100B30BDFFE753ECC8
:100BE0001A2B51EC180B00F0F5FB53EC1C2B00F00A
:100BF00097F953EC192B00F0EDFB9DED0A1B53EC1C
:100C0000112B00F08DF9E3E75C0D000000000000FF
:100C1000495555555555C5BF000000000000E03F3F
:100C200010B553EC102B51EC100B00F079F941EC9E
:100C3000100B10BD000000009FED050B10B553EC2C
:100C4000102B51EC100B00F013FA41EC100B10BDFF
:100C500000000000000000009FED050B10B553ECF4
:100C6000102B51EC100B00F0B5FB41EC100B10BD3C
:100C7000000000000000001007E0002100E0491C17
:100C800044F620629142FADB401E0028F5DC7047F2
:100C900005E0002100E0491C1E29FCDB401E002865
:100CA000F7DC704782B0CDE9000121F000400190EF
:100CB0009DED000B02B051EC100B704710B500F029
:100CC00043F800F0F1F80720FFF7D6FF00F00EF927
:100CD00004463220FFF7D0FF012C06D0022C15D09D
:100CE000032C1AD0042C23D11BE0012013490860E7
:100CF00000F06EF809E0002005E0114951F82010DD
:100D0000104A1160401CFF28F7DDF4E702200B4970
:100D100008604FF4617000F0A7F8032007490860ED
:100D200006E004200549086001E000F043F8FCE714
:100D300000BF6420FFF7A0FF002010BD1408024090
:100D400000000020140402401548006840F0010033
:100D5000134908601348144908600846406A002196
:100D600011484162406A40F4EE610F4841620C480C
:100D7000006840F004000A4908604FF055300B4904
:100D800008600748006840F002000549086008480C
:100D9000006845F255510843054908607047000056
:100DA00030380240000328000000024000080240E2
:100DB0000004024008E0002003E0C1B2034A1160D1
:100DC000801CB0F5005FF8DBF5E70000140402407A
:100DD00010B52DED0C8B9FED1D0BB0EE408AF0EEA3
:100DE000608A00242CE0204600F0C9FA41EC1D0B7B
:100DF00053EC182B00F0EEFA41EC1C0BB0EE4C0A51
:100E0000F0EE6C0AFFF7C0FAB0EE40BAF0EE60BA4E
:100E10009FED100B53EC102B51EC1B0B00F080F8E6
:100E200041EC1A0B9FED0D0B53EC102B00F0D2FA96
:100E300041EC190B00F074FA0A4941F82400641CD3
:100E4000FF2CD0DDBDEC0C8B10BD0000462C4454B3
:100E5000FB21993F000000000000F03F000000006F
:100E600000E05F4000000020034619E0002414E089
:100E700094FBF3F003FB104503EBD371B5EB610F6B
:100E800003DA00200749086002E064200549086091
:100E90004FF48C70FFF7FCFE641C5800A042E7DCA6
:100EA000E4E70000140402400E48006840F010001F
:100EB0000C49086040F283600B4988600846C068AE
:100EC00040F00400C8600846C06840F00800C860F0
:100ED0000020086148610846C06840F40050C860BE
:100EE00070470000443802400010014000BF054830
:100EF000006800F020000028F9D002484068C0B225
:100F0000704700000010014081F00041704780F000
:100F10000040704721F00041704720F000407047CA
:100F200010B591EA030F48BF83F0004300F16483DA
:100F3000841A71EB030C05D2121943EB0C03001B4E
:100F400061EB0C01DFF824E14FEA1154A4EB135CD0
:100F50001EEA430F18BF9EEA445F73D023EA0E03D4
:100F6000DCF1200E21EA045143F4801332D322FA3B
:100F70000CFE10EB0E0023FA0CFE41EB0E01CCF13F
:100F8000200E03FA0EFE10EB0E0051F10001B1F538
:100F9000801FCCF1200E32D201EB045112FA0EF276
:100FA000BDE8104058BF7047401C38BF5FEA42029E
:100FB00018BF7047002814BF20F0010041F1000164
:100FC0004FEA410313F5001F38BF7047A1F1C0413C
:100FD00000F0F8BA012A43EB0302ACF1200CDCF17B
:100FE0001F0E32BF4FF0000E23FA0CF310EB03007C
:100FF00041EB0451B4EB115FD0D0A1EB045101F5EA
:10100000801149085FEA300001EB04510ED350F122
:10101000000038BF12FA0EFE08D1BDE81040C9E743
:10102000401C38BF5FEA4202CAD1C3E7BDE81040A6
:101030004FEA410313F5001F38BF7047A1F1C041CB
:1010400000F0C0BA9EEA445F08D011EA5E0FBDE826
:10105000104004BF01F0004100207047BDE810407F
:1010600070B500F061FA00BF64FBBE3E0000E0FF17
:101070002DE9C04130B4DFF8A0C23CEA111418BF1A
:101080003CEA131400F0EC8081EA03051CEA111419
:1010900044EAD57418BF1CEA131500F0C780A4EB0E
:1010A00005044FF0004545EAC12145EAC32341EA62
:1010B000505143EA525304F17F74994204F50034CD
:1010C0004FEAC0204FEAC22208BF904200F09C8045
:1010D0004FEA13650FF24016765D4FEA134506FBA3
:1010E00005F7C7F1807706FB07F74FEAD737A7FB6D
:1010F00003687642C8F58038A7FB06CE38BFA8F152
:10110000010807FB08E64FF0000EA6FB028CE6FB89
:1011100003CEDCF1000CCEF1004E38BFAEF1010E73
:10112000A6FB0C584FF000074FF00005E6FB0E87BA
:10113000A1FB08C6A0FB07CE16EB0E0645F1000585
:10114000E1FB076515F1E04E7EBFA4F580345FEA50
:1011500046066D4116F1800745F100054FEA172755
:101160004FEA066647EA0567A6F1DE46B6F1805FFC
:101170004FEA15251FD9384624F0010C05EBC47140
:10118000BCF1FE6F01EB0C1102D8F0BCBDE8008190
:1011900024425CBF01F5801E9EEAC47F02D4F0BCED
:1011A000BDE80081244238D4F0BCA1F1C041BDE8C3
:1011B000004100F007BA4FEAD22242EA43524FEA16
:1011C000D323A7FB02864FEAD02040EA415007FB19
:1011D00003661EEA0E0F4FEAD12105FB026658BFD7
:1011E000A6EB0056B6EB00564FEA520E4EEAC37E0F
:1011F00018EB0E0E56EB530EBDD518EB02085E41F0
:101200007F1C55F10005B6E74FF480154FF000073D
:101210004FF000064FF00008ADE7F0BC4FF00000C3
:1012200001F1C04101F00041BDE8008111EA0C1F4D
:101230000CEA131500D00CE013EA0C1F00F0258017
:101240004FF00000F0BC81EA030101F00041BDE86D
:101250000081F0BCBDE8004181EA030100F0B2B9B1
:10126000F0BCBDE8004170B500F05EF9097EFC3EBF
:1012700000F007B881EA03014FF0000001F00041DF
:10128000704781EA030100F09DB9F0BCBDE8004160
:101290004FF0000021497047FFFDFBF9F7F5F4F22C
:1012A000F0EEEDEBE9E8E6E4E3E1E0DEDDDBDAD801
:1012B000D7D5D4D3D1D0CFCDCCCBCAC8C7C6C5C45F
:1012C000C2C1C0BFBEBDBCBBBAB9B8B7B6B5B4B376
:1012D000B2B1B0AFAEADACABAAA9A8A8A7A6A5A461
:1012E000A3A3A2A1A09F9F9E9D9C9C9B9A99999825
:1012F0009797969595949393929191908F8F8E8EC8
:101300008D8C8C8B8B8A8989888887878685858454
:1013100084838382828181800000FF070000F87F40
:101320004FEA41034FEA5353A3F58063D3F11E0301
:10133000C8BFD3F1210C0CDD4FF0004242EAC122BC
:1013400042EA505232FA03FC8CEAE17CACEBE170E9
:101350007047102BC4BF0020704703F5787CBCF1A8
:10136000FF3F04D06FF0004282EA2100704770B561
:1013700000F0DAF84992248000207047F2E710F07C
:10138000004248BF4042B0FA80F310FA03F10AD09D
:10139000C3F11D0303F580634FEA415002EB035292
:1013A00002EBD12170474FF000007047B0FA80F394
:1013B00010FA03F10AD0C3F11D0303F580634FEA6D
:1013C00041504FEA035202EBD12170474FF0000029
:1013D00070470000DFF848C170B51CEA111E1EBF3F
:1013E0001CEA13159EEA0C0F95EA0C0F00F06F80B3
:1013F00081EA030423EA4C134EEAD47E21EA4C111D
:1014000041F4801143F48013AE44A1FB024CA0FBD5
:101410000365AEF17F7E361955EB0C05A1FB034C3D
:101420004CF10003A0FB021C16EB0C06654153F1C6
:101430000003094218BF46F0010613F4007F0BD1E8
:101440004FEA03314FEA0530340341EA155140EACF
:1014500016506FF003020AE04FEAC3214FEAC5209D
:10146000F40241EA555140EA56506FF0020202EB95
:101470002E4201EB025585EACE710AD05FEA440C98
:1014800018BF24F0004450F1000041F1000120EAAF
:10149000D47040F2FE7C624500D270BDA84214BFF9
:1014A0004FF080444FF04044002E08BF0024BEF1AE
:1014B000806FA8BFA1F1C041BDE8704080F282807A
:1014C0004FF0000001F1C04101F0004170479EEA79
:1014D0000C0F0CEA131518BF95EA0C0F06D04FF04D
:1014E000000081EA030E0EF0004170BD00F01CF810
:1014F0008900013E00F007B800F009B84FEA430C3C
:101500005FEA5C5C08D081EA030100F05BB84FEA57
:10151000410C5FEA5C5CF6D14FF000000149704776
:101520000000FF070000F87F0EF1020E2EF0030E00
:101530005EF8046B364205D4012A43EB030515F52A
:10154000001F12D8012841EB010C1CF5001F0CD81C
:101550000ED14FEAD17C15F5001F0CEB4C0C0CF1B1
:10156000020C08BF4CEBD37C04E04FF0080C01E008
:101570004FEAD37C0CEB4C0526FA05F606F007067D
:10158000B6F1040C06D20EEB860CBDE870404CF0B0
:10159000010C6047DFE80CF0090B02024FF000413C
:1015A0004FF00000A1F5002170BD1946104601283A
:1015B00051EB010418BFD4F5001484BF002001F0E2
:1015C000004170BD0808A0F500114FEA31017047D5
:1015D00091EA030F10B581F000413FF5A9AC83F00B
:1015E000004300F009B8000010B591EA030F48BFAE
:1015F00083F000433FF59CAC841A71EB030C07D2D7
:1016000012198CF0004C43EB0C03001B61EB0C0136
:10161000DFF8A4E14FEA1154A4EB135C1EEA430F78
:1016200018BF9EEA445F00F0B08023EA6E03524286
:1016300021EA0451C3EB6E0338BF5B1EDCF1200EC0
:1016400025D322FA0CFE10EB0E0043FA0CFE41EB00
:101650000E01CCF1200E03FA0EFE10EB0E0051F13C
:101660000001CCF1200E29D412FA0EF201EB045144
:10167000BDE8104058BF7047401C1CBFB2F1004F7E
:10168000704700280CBF491C20F00100704712EB86
:10169000020E43EB030218BF4FF0010E4EEA420266
:1016A000ACF1200CDCF11E0E54D943FA0CFE10EB09
:1016B0000E0051F1FF31CCF11E0ED5D50EF1010E09
:1016C00012FA0EFE404141EB010101EB445C5FEA7E
:1016D0005C5C10D910EBDE7001EB045138BFBEF139
:1016E000004FBDE8104018BF704700280CBF491CD0
:1016F00020F00100704730D24FEAD42C11F50011D0
:1017000024F400641BD0B1FA81F20B3AA41AA41E8F
:10171000D2F12003914030FA03F31943904001EBDA
:10172000CC71002C01EB0451BDE81040A8BF7047FC
:1017300001F1C0414FF0000001F000417047B0FAE4
:1017400080F310FA03F100D110BDE41A173C4805EC
:10175000C90AE4E701EB045110BD491001EB045143
:10176000BDE810404FEA300002E04FF00001704742
:101770004A0008BF0042F8D0B2F5001F28BF7047EA
:1017800001F000414FF0000070479EEA445F07D02F
:1017900011EA5E0FBDE8104004BF00210020704731
:1017A000BDE8104070B5FFF7BFFE00BF40DFF63E5A
:1017B00083F00041104670470000E0FF4FF040709A
:1017C000E1EE100A704700004C5555555555A53FA0
:1017D0007751C1166CC156BF9015CB19A001FA3EC6
:1017E000AD529C804F7E92BEC4B1B4BD9EEE213EF0
:1017F000D43888BEE9FAA8BD00004054FB21F93F67
:101800003163621A61B4D03D0000601A61B4D03D0A
:101810007370032E8A19A33B0000002E8A19A33B84
:10182000C14920259A837B39000000000000000098
:101830006E83F9A22915444ED15727FCC0DD34F53B
:10184000999562DB4190433CAB6351FE61C5BBDEC1
:101850003A6E24B7E0D24D42EA2E49061C92D109D5
:101860001CEB1DFE3EA729B1F53582E88444BB2E52
:1018700026709CE9417E5FB439D69139F43953839F
:101880008B5F849C3B28F9BDFF97F81F0F9805DEFE
:101890008B112FEF1F6D0A5ACF7E366DB709CB27FC
:1018A000663F464F2DEA5F9EC7BA27757BF1E5EB91
:1018B000F739073DEA92528AB15FFB6B085D8D1FD5
:1018C000A6F810111111813FD561C119A0012ABFDD
:1018D0007DFEB157E31DC73EEB9C2B8AE6E55ABE61
:1018E0007CD5CF5A3AD9E53DF81800080000002011
:0818F000600A0000D4010008A9
:040000050800019955
:00000001FF
